:040000006F00104736
:1000040000000000000000009002000090020000C8
:10001400000000009002000000000000000000004A
:1000240090020000900200000000000000000000A8
:100034009002000000000000900200000000000098
:1000440090020000900200009002000000000000F6
:100054009002000090020000900200009002000054
:100064009002000090020000900200009002000044
:100074009002000090020000900200009002000034
:100084009002000090020000900200009002000024
:100094009002000090020000900200009002000014
:1000A4009002000090020000900200009002000004
:1000B400900200009A0300009002000090020000E9
:1000C40090020000900200009002000090020000E4
:0C00D4009002000090020000900200006A
:1000E000AA87130505FD1375F50F2547637DA70046
:1000F0001387F7F91377F70F954663E7E6009387C1
:1001000097FA13F5F70F82801387F7FB1377F70F32
:100110000145E3EAE6FE938797FCE5B7411106C681
:1001200022C426C2AA84034505005D3F2A8403C574
:10013000140012047537B24022952244924413757C
:10014000F50F41018280B73701402396A70037376A
:10015000014083578700858BEDDF0355C70013757A
:10016000F50F8280411106C622C426C24AC0371448
:100170000140414913050502232A24811375F50F17
:10018000AE84D1372685C137B2402328248122444A
:100190009244024941018280411106C622C426C20E
:1001A00037140140C144232A9480713F0145613FC7
:1001B000B24023289480224492444101828041111C
:1001C00022C426C206C6FD472E84B28463E6A70079
:1001D000130505021375F50FB7170140414723AA10
:1001E000E7809537A294631C9400B2402244B7176D
:1001F0000140414723A8E7809244410182800345A2
:10020000040005048937C5B7411106C622C426C2B9
:100210004AC0371401408944B7050020232A94803E
:100220001546938585002D45593F938501811546D7
:10023000414571371546938501812945493783C565
:10024000518115454149393F83C7F1821387818127
:10025000BA9783C507001945313791457545193758
:100260009305F0037145FD3D1305200E232A2481DB
:10027000D93D23282481232A9480BD450145DD35BD
:10028000B240232894802244924402494101828052
:1002900001A083C7C18293F7F70F85EF83C7B182AF
:1002A00093F7F70F9DC783C7B1823737024093F7A3
:1002B000F70F2314F7428357A742C207C183F19B6C
:1002C000C207C1832315F74285472386F182A385A0
:1002D0000182828083C7C18293F7F70FE5FF83C74E
:1002E000B18213F7F70F9307170093F7F70FA38562
:1002F000F18293870183BA972380A70483C7B182D1
:100300001307000493F7F70F6393E70059B7828050
:1003100013870183B73702409306070823A8D74005
:1003200089462391D742239007429306C70823AA00
:10033000D74023ACE740130700042386E74031474A
:10034000A386E74049472393E7422395E742239258
:100350000742239407422387018223860182238553
:100360000182A384018223840182828003A84182C6
:10037000814781459386018B3306F8006396A70079
:1003800099C123A2C1828280834506003386F6008C
:1003900085072300B6008545C5B75D713ED0B737E8
:1003A00002404ACA86C696C49AC29EC022DE26DC95
:1003B0002ADA2ED832D636D43AD242CE46CC4EC8DD
:1003C00072C676C47AC27EC083C6674003C77740D0
:1003D0009387074013F9F60F898A63860616137709
:1003E000F70F9376F7009305000213770703630E68
:1003F000B732130600036307C7046311071463834E
:10040000063C0947639CE61203C76700137707049D
:100410006306071203D78700420741836300071270
:1004200003D7A702420741834D9B1367870023959B
:10043000E70283D7870093F7F70F2387F182A3861C
:100440000182EDA8138701838356670803460708D6
:10045000239FD18083461708938701832380D1820D
:10046000A380C18203C41182AA893686137404064C
:100470006314042603C70182AD461377F70F63E6C2
:10048000E60A85660A07938606D0369718430287E0
:1004900003C737080946630CC7048D466301D706B6
:1004A00085476314F70885679387C7D323A2F18232
:1004B000C94703D7E18193960701C182420741836F
:1004C00063F4E700239FD18083D7E1811D47214456
:1004D000C207C1836366F70003D4E1811374F40F8C
:1004E000228569359307F00F631DF40C3DA88567DD
:1004F000938707D523A2F1829307B0045DBF83C61B
:10050000270885679387C7D36383C60A6368D608BD
:10051000C1EE9387070623A2F18283A741821307C6
:10052000F00F83C70700E396E7F8FD572380F182B9
:100530001307F00CB73702402391E742B737024068
:1005400009472383E7409377490091C7B7370240B3
:1005500011472383E74013791900630A09004D3BD3
:10056000B7370240A38107407D572383E740725489
:10057000B640A64216438643E2545255C2553256FF
:10058000A256125782577248E2485249C249324E27
:10059000A24E124F824F6161730020301146638B6F
:1005A000C6009387470A85BF93874706ADB79387F1
:1005B000070895B79387070CB9BF03C7270823849B
:1005C000E18283D7E181131704014183818FC20740
:1005D000C183239FF180B73702402390E74213077E
:1005E000000C99BF03C791822380E70883D7E1817C
:1005F0000547C207C1836374F700239FE18003D4DA
:10060000E1811374F40FF9BD03C72708A384E182C5
:1006100005472385E18275B72390070883D7E181D9
:100620000947C207C183C1BF03C711827D8BE30E97
:1006300007EE83C611820947FD8AE398E6EE83C779
:1006400047083737024013070740638FD7009306E8
:100650002008E39CD7EC8357A702C207C18393F716
:10066000C7FB93E7270009A88357A702C207C183E6
:1006700093F737F7C207C1832315F70299B703C76A
:1006800011827D8BE30307EA83C611820947FD8A45
:10069000E39DE6E803C42708E31904E883C7470895
:1006A0003737024013070740638FD70093062008AF
:1006B000E39DD7E68357A702C207C18393F7C7FB21
:1006C00093E7370055BF8357A702C207C18393F74B
:1006D00037F793E7C7004DB783C6118293F6060636
:1006E000E395B6E483C701821306100293F7F70F70
:1006F000638AC700130620026384C702E397D7E228
:100700000144C1B5B707002093870700214523A204
:10071000F182A93983D7E1812147C207C183E1BDB5
:1007200003472708238EE180E1BF85C20947E3978D
:10073000E6E02386018203D7A70242074183719B2B
:10074000136727002395E702D5BB03C701829546AF
:100750001377F70F6308D70499466310D70683D73A
:10076000E1811D47A144C207C1836366F70083D4BA
:10077000E18193F4F40F2685D53E83D7E181139769
:1007800004014183858FC207C183239FF180B7375E
:1007900002402390E74203D7274242074183134791
:1007A000070459BB03C7370083C681821377070844
:1007B00093F6F60F558FA381E700130720082391C6
:1007C000E702ADBB03C7118213770706631FB704A7
:1007D00083C6018293F6F60F639AE60283D68700FA
:1007E0003706002093F6F60F8147B6882148130696
:1007F00006009385018B13F7F80F6373D800214728
:1008000013F5F70F6369E500239F0180B7370240B6
:100810001307000415B33385F5000345050033873E
:10082000C70085072300A700F9B71307000441BFDD
:10083000411122C406C62A840345040009E5B240DA
:1008400022444101828005047134FDB7411122C464
:100850009357450006C625472A841385070363740A
:10086000F70013857703BD349377F400254713858C
:1008700077036364F700138507032244B240410104
:1008800091BC5D71A6C2B71402409C4C86C6A2C43E
:10089000CAC052DC56DA5AD862D44EDE5ED666D270
:1008A0006AD06ECE93E717019CCCDC4805693714FB
:1008B0000140B3E72701DCC85C4C894A3707014097
:1008C00093F707F093E747085CCC232054031C4FB1
:1008D000373A024093F707F393E7C70C1CCF230086
:1008E0000A403D3493079002A3010A402300FA40D6
:1008F000FD572303FA40930710F8A300FA409D47E1
:100900002301FA400967B7E700E023A2E710232894
:100910005481832704803707F1FF7D1793F7F7F0A1
:1009200093E707032320F480C1472328F48083271B
:100930000480138B818CF98F37070300D98F232014
:10094000F4809C4C1307590013090980D98F9CCC63
:10095000832704803707B0B8B207B183D98F23202B
:10096000F480930700042328F48013074035B73739
:1009700001402390E700EFF03F89832744804577CB
:100980007D17F98F0D67D98F2322F480138401839B
:10099000130CA409B719014093890980414DE68BD6
:1009A00023A829011D45EFF02FFF137505041DCD68
:1009B00023AA290113050006EFF00FFE2A8A23AAB5
:1009C000A90113051006930A8409EFF0CFF7D2842A
:1009D000D68DCDE423A8A901930500041D45EFF0B1
:1009E0006FF86397440BEFF0DF8A31A05D45EFF0BD
:1009F000AFFA058955DD83C7E18293F7F70FCDD3B1
:100A00001307000213F6F70F6374F70013060002D2
:100A10009306840932871308F00FB73802407D1718
:100A20001377F70F631F0707034784099307100223
:100A3000631CF71C83479409130730076382E71A86
:100A40006368F70A130730066382E7161307200767
:100A500081449309A4096391E70A370A0020130A25
:100A60008A00954A4E85EFF06FEBB38744012380EF
:100A7000A70085048909E39754FFBDA80145EFF05D
:100A80008FECFD142380AD0093F4F40F850D91B726
:100A900003C50A00850493F4F40FEFF0BF83850AC1
:100AA00089B783C7E18293F7F70FE5DF83C7D18268
:100AB00093F7F70F9385170093F5F50FA386B1828F
:100AC000A29703C3070083C7E182FD1793F7F70FCF
:100AD0002387F18291EB83D7A842C207C183CD9BC4
:100AE000C207C1832395F84223806600850605BFAF
:100AF000130740076384E70C8564EFF0EFF09384FD
:100B000044E103C504006319050E2945EFF08FFC8D
:100B1000EFF02FF80565130545E3193B03C5518137
:100B200081442D332945EFF0EFFA0565130545E4BF
:100B3000013393890181154AB387340103C5070046
:100B400085042933E39A44FF2945EFF0AFF80565A2
:100B5000130545E5B7090020E139814493898900EF
:100B6000154AB387340103C507008504C531E39AEC
:100B700044FF2945EFF00FF60565130545E64D39AD
:100B800083C7F1828564938404E313972700856704
:100B9000938707D3BA978843613903C504002DE1D1
:100BA0002945EFF02FF3EFF0CFEEEDB36285EFF0D4
:100BB000EFD61375F507A38AA1803DBF8144930941
:100BC000A409138A0181954A4E85EFF02FD5B3878A
:100BD00044012380A70085048909E39754FF29BFB6
:100BE0006285EFF0AFD309476365A700A387A182B1
:100BF00021B7A387E18209B78504EFF0AFED11B704
:100C00008504EFF02FED51BF32C6B71401409305B4
:100C100000031D4523AA2481EFF0CFD4C14923AAA4
:100C200034811305100EEFF00FD223A834818949C7
:100C3000B945014523AA3481EFF0CFD2324623A82B
:100C40003481DA851305000AEFF06FD71D45EFF008
:100C5000AFD4137505037DD9B7140140894923AA80
:100C60003481BD450145EFF0EFCF23A834811DB39A
:100C7000856793872788970100209381A1B8174142
:100C80000020130121387D45731005BC1305800831
:100C9000732005308D4573904580130540004D8DC0
:100CA0007310553073901734B7070020056793878A
:100CB0000700130747E89386C18163E8D70293874B
:100CC000C1811387818E63E8E702B7270240094795
:100CD00098C3B717024023A2070037F700E09546F4
:100CE00014C3714798CF7300203010431107910748
:100CF00023AEC7FED9B7910723AE07FEE9B70000C0
:100D000018060000280600002A0500007E060000E4
:100D10002A050000BA050000900400002A05000022
:100D2000E405000008060000C2050000C20500003E
:100D3000740E00007C0E0000800E00001201000204
:100D400000000008C016DD270001010203010000B9
:100D500009024B000201008019080B000202020187
:100D60000409040000010202010405240010010529
:100D70002401000004240202052406000107058165
:100D80000308000109040100020A0000040705022B
:100D9000024000000705820240000000040309042D
:100DA000180377006100670069006D0069006E003C
:100DB000610074006F007200000000002203430015
:100DC00048003300320058003000330035002D0059
:100DD0004E00520046003200550053004200000011
:100DE000180343004800330032005800300033003D
:100DF0003500430044004300000000001603430098
:100E0000440043002D00530065007200690061003A
:100E10006C00000023206E524632344C30312B20BF
:100E2000436F6E66696775726174696F6E3A000030
:100E30006270730023205246206368616E6E656C99
:100E40003A20000023205458206164647265737353
:100E50003A20000023205258206164647265737345
:100E60003A20000023204461746120726174653A65
:100E7000202000003235306B00000000314D0000B2
:040E8000324D0000EF
:100E840000C2010000000800C2C2C2C2C2000000C9
:0C0E9400E7E7E7E7E702000026060E0093
:00000001FF
