:040000006F00D04A73
:1000040000000000000000008C0200008C020000D0
:10001400000000008C02000000000000000000004E
:100024008C0200008C0200000000000000000000B0
:100034008C020000000000008C02000000000000A0
:100044008C0200008C0200008C0200000000000002
:100054008C0200008C0200008C0200008C02000064
:100064008C0200008C0200008C0200008C02000054
:100074008C0200008C0200008C0200008C02000044
:100084008C0200008C0200008C0200008C02000034
:100094008C0200008C0200008C0200008C02000024
:1000A4008C0200008C0200008C0200008C02000014
:1000B4008C020000A80300008C0200008C020000E7
:1000C4008C0200008C0200008C0200008C020000F4
:0C00D4008C0200008C0200008C02000076
:1000E000AA87130505FD1375F50F2547637DA70046
:1000F0001387F7F91377F70F954663E7E6009387C1
:1001000097FA13F5F70F82801387F7FB1377F70F32
:100110000145E3EAE6FE938797FCE5B7411106C681
:1001200022C426C2AA84034505005D3F2A8403C574
:10013000140012047537B24022952244924413757C
:10014000F50F41018280B73701402396A70037376A
:10015000014083578700858BEDDF0355C70013757A
:10016000F50F8280411106C622C426C24AC0371448
:100170000140414913050502232A24811375F50F17
:10018000AE84D1372685C137B2402328248122444A
:100190009244024941018280411106C622C426C20E
:1001A00037140140C144232A9480713F0145613FC7
:1001B000B24023289480224492444101828041111C
:1001C00022C426C206C6FD472E84B28463E6A70079
:1001D000130505021375F50FB7170140414723AA10
:1001E000E7809537A294631C9400B2402244B7176D
:1001F0000140414723A8E7809244410182800345A2
:10020000040005048937C5B7411106C622C426C2B9
:100210004AC0371401408944232A948015469385A7
:10022000C1802D45693F9385418115464145413F38
:100230001546938541812945593783C581801545E8
:1002400041490D3703C7918293870182BA9783C5CD
:1002500007001945013F9145754529379305F0037E
:10026000714509371305200E232A2481E93D2328EF
:100270002481232A9480BD450145ED35B2402328D1
:1002800094802244924402494101828001A0138655
:1002900071828347060093F7F70F95EF13878182EA
:1002A0008347070093F7F70F9DC783470700B736CB
:1002B000024093F7F70F2394F64283D7A642C20772
:1002C000C183F19BC207C1832395F6428547230072
:1002D000F6002300070082809387718283C707009E
:1002E00093F7F70FF5FB9387818203C70700937697
:1002F000F70F138716001377F70F2380E70083C7E4
:1003000007001387018536972300A70493F7F70F9B
:10031000130700046393E7009DBF8280B737024054
:100320001387818323A8E74009472391E74223905D
:1003300007421387418423AAE7401387018523AC32
:10034000E740130700042386E7403147A386E740D0
:1003500049472393E7422395E74223920742239498
:100360000742A3820182A383018223860182A3859F
:10037000018223850182828003A8418381478145D0
:1003800013874183938681833306F8006395A70022
:1003900091C110C38280834506003386F60085072D
:1003A0002300B6008545CDB75D713ED0B73702401A
:1003B0004ACA86C696C49AC29EC022DE26DC2ADAC3
:1003C0002ED832D636D43AD242CE46CC4EC872C699
:1003D00076C47AC27EC083C6674003C777409387DE
:1003E000074013F9F60F898A638006181377F70F11
:1003F0009376F70013060002137707036308C734E8
:10040000930500036307B704631B07146381063E6B
:1004100009476396E61403C7670013770704630070
:10042000071403D7870042074183630A071203D7E3
:10043000A702420741834D9B136787002395E7027C
:1004400083D7870093F7F70FA382F182238301827A
:1004500039A213878183835567009386E1822390B5
:10046000B600834617001385018303480700230065
:10047000D500938511832380050103C4050093876C
:1004800081839384E18213740406938901839386A4
:1004900011836314042603C709002D461377F70F51
:1004A0006366E60A05660A07130646E132971843B3
:1004B000028703C737000946630CC7048D466301F2
:1004C000D70685476314F70885679387C7D323AAA0
:1004D000F182C94703D7040093960701C1824207FE
:1004E000418363F4E7002390D40083D704001D47C1
:1004F0002144C207C1836366F70003D40400137468
:10050000F40F2285953D9307F00F631DF40C3DA871
:100510008567938707D523AAF1829307B0045DBF4F
:1005200083C627008567138741839387C7D3638179
:10053000C60A6366D608D1EA938707061CC31C4324
:100540001307F00F83C70700E396E7F8FD572380F2
:10055000F9001307F00CB73702402391E742B73791
:10056000024009472383E7409377490091C7B73793
:10057000024011472383E74013791900630A0900F9
:10058000713BB7370240A38107407D572383E74083
:100590007254B640A64216438643E2545255C255A1
:1005A0003256A256125782577248E2485249C249FF
:1005B000324EA24E124F824F6161730020301146BD
:1005C000638BC6009387470A95BF93874706BDB7DD
:1005D00093870708A5B79387070C8DB703C7270034
:1005E0002385E18283D70400131704014183818F9F
:1005F000C207C1832390F400B73702402390E7423B
:100600001307000C99BF03C7B1822380E70083D78B
:1006100004000547C207C1836374F7002390E40018
:1006200003D404001374F40FF9BD03C72700A38596
:10063000E18205472386E18275B72390070083D7BF
:1006400004000947C207C183C1BF03C706007D8BF1
:10065000E30E07EE83C606000947FD8AE398E6EE3F
:1006600083C747003737024013070740638FD7001F
:1006700093062008E39CD7EC8357A702C207C183E7
:1006800093F7C7FB93E7270009A88357A702C20780
:10069000C18393F737F7C207C1832315F70299B7D0
:1006A00003C706007D8BE30307EA83C606000947FC
:1006B000FD8AE39DE6E803C42700E31904E883C745
:1006C00047003737024013070740638FD700930670
:1006D0002008E39DD7E68357A702C207C18393F79B
:1006E000C7FB93E7370055BF8357A702C207C183F3
:1006F00093F737F793E7C7004DB783C6050093F626
:100700000606E395C6E4834705001306100293F737
:10071000F70F638AC700130620026384C702E397BA
:10072000D7E20144C1B5B7070020938707002145F0
:1007300023AAF182913183D704002147C207C183E4
:10074000E1BD034727002382E182E1BF85C209475B
:10075000E397E6E0A383018203D7A7024207418320
:10076000719B136727002395E702D5BB03C701835D
:1007700095461377F70F630CD70499466314D70691
:100780009387E18283D707001D471384E182C20764
:10079000C183A1446366F7008354040093F4F40F0B
:1007A0002685D93E83570400139704014183858F22
:1007B000C207C1832310F400B73702402390E742F9
:1007C00003D72742420741831347070479B303C77E
:1007D000370083C6A1821377070893F6F60F558F6B
:1007E000A381E700130720082391E7028DBB03C70D
:1007F000118313770706631FC70483C6018393F62B
:10080000F60F639AE60283D687003706002093F638
:10081000F60F8147B6882148130606009385818329
:1008200013F7F80F6373D800214713F5F70F6369C7
:10083000E50023970182B73702401307000431BB5C
:100840003385F500034505003307F60085072300CF
:10085000A700F9B71307000441BF411122C406C61F
:100860002A840345040009E5B24022444101828004
:1008700005049D34FDB7411122C49357450006C6B7
:1008800025472A84138507036374F70013857703CC
:10089000A1349377F4002547138577036364F70049
:1008A000138507032244B24041013DB45D71A6C2E5
:1008B000B71402409C4C86C6A2C44EDE52DC56DA07
:1008C0005AD862D466D2CAC05ED66AD06ECE93E7DA
:1008D00017019CCCDC48856937140140B3E7370128
:1008E000DCC85C4C894A3707014093F707F093E76F
:1008F00047085CCC232054031C4F373A024095092B
:1009000093F707F393E7C70C1CCF23000A40393451
:1009100093079002A3010A402300FA40FD572303E6
:10092000FA40930710F8A300FA409D472301FA40CC
:100930000967B7E700E023A2E71023285481832743
:1009400004803707F1FF7D1793F7F7F093E707036C
:100950002320F480C1472328F48083270480F98F63
:1009600037070300D98F2320F4809C4C3707B0B899
:10097000138B0185B3E9370123AC3401832704804D
:100980009384018DB207B183D98F2320F48093071C
:1009900000042328F48013074035B7370140239023
:1009A000E700EFF07F868327448045777D17F98F36
:1009B0000D67D98F2322F480938C240037190140CE
:1009C000056A13090980130A0A80414D2328490149
:1009D0001D45EFF06FFC1375050421C1232A490161
:1009E00013050006EFF04FFBAA8A232AA90113057D
:1009F0001006EFF04FF5938B018D5684938D018D8A
:100A00005DE42328A901930500041D45EFF08FF54F
:100A10006319540BEFF0BF8731A05D45EFF0CFF7BE
:100A200005894DDD9387518283C7070093855182E5
:100A300093F7F70FC1DF1307000213F6F70F637484
:100A4000F700130600029386018D32879308F00F9A
:100A5000373E02407D171377F70F631D170703C753
:100A6000040093071002631CF71C83C714001307CC
:100A700030076380E71A6368F70A1307300663805C
:100A8000E716130720070144138924006391E70A3E
:100A9000138AC180954A4A85EFF04FE8B3078A0070
:100AA0002380A70005040909E31754FF49A0014565
:100AB000EFF06FE97D142380AD001374F40F850D02
:100AC00081B703C50B0005041374F40FEFF0DF804A
:100AD000850B3DBF83C7050093F7F70FE5DF13884C
:100AE00061828347080093F7F70F1385170013758A
:100AF000F50F2300A800DA9703C8070083C7050095
:100B0000FD1793F7F70F2380F50091EB8357AE4263
:100B1000C207C183CD9BC207C1832315FE42238038
:100B20000601850605BF130740076382E70C0564CD
:100B3000EFF08FED130444E4034504006319050E40
:100B40002945EFF06FF9EFF08FF40565130545E6E1
:100B5000293303C581800144393B2945EFF0CFF7A4
:100B60000565130545E7D53913894181154AB30752
:100B7000890003C507000504FD39E31A44FF294530
:100B8000EFF08FF50565130545E8C1390144138978
:100B9000C180154AB307890003C507000504E13980
:100BA000E31A44FF2945EFF02FF30565130545E9E6
:100BB0006D3183C791820564130404E613972700FF
:100BC0008567938747EBBA9788434139034504000B
:100BD0003DE12945EFF04FF0EFF06FEBC5B36685CF
:100BE000EFF0CFD31375F5072384A18089B70144B3
:100BF00013892400138A4181954A4A85EFF00FD268
:100C0000B3078A002380A70005040909E31754FFEE
:100C100039BF6685EFF08FD009479387918263656E
:100C2000A7002380A70021B72380E70009B70504A8
:100C3000EFF08FEA11B70504EFF00FEA41BF8567C7
:100C400032C63714014093870780232AF480930526
:100C500000031D45EFF00FD14149232A24811305DC
:100C6000100EEFF04FCE232824810949B9450145E4
:100C7000232A2481EFF00FCF324623282481A68532
:100C80001305000AEFF0AFD31D45EFF0EFD0137559
:100C900005037DD9371401400949232A2481BD4524
:100CA0000145EFF02FCC2328248109BB856793876A
:100CB000C78A970100209381E1B4174100201301F6
:100CC00061347D45731005BC130580087320053021
:100CD0008D4573904580130540004D8D7310553040
:100CE00073901734B7070020056793870700130731
:100CF00007EC9386418263E8D7029387418213878A
:100D0000018F63E8E702B7270240094798C3B71786
:100D1000024023A2070037F700E0954614C371474D
:100D200098CF7300203010431107910723AEC7FE00
:100D3000D9B7910723AE07FEE9B700001201000200
:100D400000000008C016DD270001010203010000B9
:100D500009024B000201008019080B000202020187
:100D60000409040000010202010405240010010529
:100D70002401000004240202052406000107058165
:100D80000308000109040100020A0000040705022B
:100D9000024000000705820240000000040309042D
:100DA000180377006100670069006D0069006E003C
:100DB000610074006F007200000000002203430015
:100DC00048003300320058003000330035002D0059
:100DD0004E00520046003200550053004200000011
:100DE000180343004800330032005800300033003D
:100DF0003500430044004300000000001603430098
:100E0000440043002D00530065007200690061003A
:100E10006C0000003A0600004A0600004C05000085
:100E2000A00600004C050000DC050000B204000034
:100E30004C050000060600002A060000E40500003C
:100E4000E405000023206E524632344C30312B2012
:100E5000436F6E66696775726174696F6E3A000000
:100E60006270730023205246206368616E6E656C69
:100E70003A20000023205458206164647265737323
:100E80003A20000023205258206164647265737315
:100E90003A20000023204461746120726174653A35
:100EA000202000003235306B00000000314D000082
:100EB000324D0000A40E0000AC0E0000B00E000089
:100EC00000C201000000080002000000C2C2C2C24D
:100ED000C2000000E7E7E7E7E700000000000000CD
:040EE00026060E00D4
:00000001FF
